{
  "_format": "hh-sol-artifact-1",
  "contractName": "MyToken",
  "sourceName": "contracts/ERC20Votes.sol",
  "abi": [
    {
      "inputs": [],
      "stateMutability": "nonpayable",
      "type": "constructor"
    },
    {
      "inputs": [],
      "name": "InvalidShortString",
      "type": "error"
    },
    {
      "inputs": [
        {
          "internalType": "string",
          "name": "str",
          "type": "string"
        }
      ],
      "name": "StringTooLong",
      "type": "error"
    },
    {
      "anonymous": false,
      "inputs": [
        {
          "indexed": true,
          "internalType": "address",
          "name": "owner",
          "type": "address"
        },
        {
          "indexed": true,
          "internalType": "address",
          "name": "spender",
          "type": "address"
        },
        {
          "indexed": false,
          "internalType": "uint256",
          "name": "value",
          "type": "uint256"
        }
      ],
      "name": "Approval",
      "type": "event"
    },
    {
      "anonymous": false,
      "inputs": [
        {
          "indexed": true,
          "internalType": "address",
          "name": "delegator",
          "type": "address"
        },
        {
          "indexed": true,
          "internalType": "address",
          "name": "fromDelegate",
          "type": "address"
        },
        {
          "indexed": true,
          "internalType": "address",
          "name": "toDelegate",
          "type": "address"
        }
      ],
      "name": "DelegateChanged",
      "type": "event"
    },
    {
      "anonymous": false,
      "inputs": [
        {
          "indexed": true,
          "internalType": "address",
          "name": "delegate",
          "type": "address"
        },
        {
          "indexed": false,
          "internalType": "uint256",
          "name": "previousBalance",
          "type": "uint256"
        },
        {
          "indexed": false,
          "internalType": "uint256",
          "name": "newBalance",
          "type": "uint256"
        }
      ],
      "name": "DelegateVotesChanged",
      "type": "event"
    },
    {
      "anonymous": false,
      "inputs": [],
      "name": "EIP712DomainChanged",
      "type": "event"
    },
    {
      "anonymous": false,
      "inputs": [
        {
          "indexed": true,
          "internalType": "bytes32",
          "name": "role",
          "type": "bytes32"
        },
        {
          "indexed": true,
          "internalType": "bytes32",
          "name": "previousAdminRole",
          "type": "bytes32"
        },
        {
          "indexed": true,
          "internalType": "bytes32",
          "name": "newAdminRole",
          "type": "bytes32"
        }
      ],
      "name": "RoleAdminChanged",
      "type": "event"
    },
    {
      "anonymous": false,
      "inputs": [
        {
          "indexed": true,
          "internalType": "bytes32",
          "name": "role",
          "type": "bytes32"
        },
        {
          "indexed": true,
          "internalType": "address",
          "name": "account",
          "type": "address"
        },
        {
          "indexed": true,
          "internalType": "address",
          "name": "sender",
          "type": "address"
        }
      ],
      "name": "RoleGranted",
      "type": "event"
    },
    {
      "anonymous": false,
      "inputs": [
        {
          "indexed": true,
          "internalType": "bytes32",
          "name": "role",
          "type": "bytes32"
        },
        {
          "indexed": true,
          "internalType": "address",
          "name": "account",
          "type": "address"
        },
        {
          "indexed": true,
          "internalType": "address",
          "name": "sender",
          "type": "address"
        }
      ],
      "name": "RoleRevoked",
      "type": "event"
    },
    {
      "anonymous": false,
      "inputs": [
        {
          "indexed": true,
          "internalType": "address",
          "name": "from",
          "type": "address"
        },
        {
          "indexed": true,
          "internalType": "address",
          "name": "to",
          "type": "address"
        },
        {
          "indexed": false,
          "internalType": "uint256",
          "name": "value",
          "type": "uint256"
        }
      ],
      "name": "Transfer",
      "type": "event"
    },
    {
      "inputs": [],
      "name": "CLOCK_MODE",
      "outputs": [
        {
          "internalType": "string",
          "name": "",
          "type": "string"
        }
      ],
      "stateMutability": "view",
      "type": "function"
    },
    {
      "inputs": [],
      "name": "DEFAULT_ADMIN_ROLE",
      "outputs": [
        {
          "internalType": "bytes32",
          "name": "",
          "type": "bytes32"
        }
      ],
      "stateMutability": "view",
      "type": "function"
    },
    {
      "inputs": [],
      "name": "DOMAIN_SEPARATOR",
      "outputs": [
        {
          "internalType": "bytes32",
          "name": "",
          "type": "bytes32"
        }
      ],
      "stateMutability": "view",
      "type": "function"
    },
    {
      "inputs": [
        {
          "internalType": "address",
          "name": "owner",
          "type": "address"
        },
        {
          "internalType": "address",
          "name": "spender",
          "type": "address"
        }
      ],
      "name": "allowance",
      "outputs": [
        {
          "internalType": "uint256",
          "name": "",
          "type": "uint256"
        }
      ],
      "stateMutability": "view",
      "type": "function"
    },
    {
      "inputs": [
        {
          "internalType": "address",
          "name": "spender",
          "type": "address"
        },
        {
          "internalType": "uint256",
          "name": "amount",
          "type": "uint256"
        }
      ],
      "name": "approve",
      "outputs": [
        {
          "internalType": "bool",
          "name": "",
          "type": "bool"
        }
      ],
      "stateMutability": "nonpayable",
      "type": "function"
    },
    {
      "inputs": [
        {
          "internalType": "address",
          "name": "account",
          "type": "address"
        }
      ],
      "name": "balanceOf",
      "outputs": [
        {
          "internalType": "uint256",
          "name": "",
          "type": "uint256"
        }
      ],
      "stateMutability": "view",
      "type": "function"
    },
    {
      "inputs": [
        {
          "internalType": "address",
          "name": "account",
          "type": "address"
        },
        {
          "internalType": "uint32",
          "name": "pos",
          "type": "uint32"
        }
      ],
      "name": "checkpoints",
      "outputs": [
        {
          "components": [
            {
              "internalType": "uint32",
              "name": "fromBlock",
              "type": "uint32"
            },
            {
              "internalType": "uint224",
              "name": "votes",
              "type": "uint224"
            }
          ],
          "internalType": "struct ERC20Votes.Checkpoint",
          "name": "",
          "type": "tuple"
        }
      ],
      "stateMutability": "view",
      "type": "function"
    },
    {
      "inputs": [],
      "name": "clock",
      "outputs": [
        {
          "internalType": "uint48",
          "name": "",
          "type": "uint48"
        }
      ],
      "stateMutability": "view",
      "type": "function"
    },
    {
      "inputs": [],
      "name": "decimals",
      "outputs": [
        {
          "internalType": "uint8",
          "name": "",
          "type": "uint8"
        }
      ],
      "stateMutability": "view",
      "type": "function"
    },
    {
      "inputs": [
        {
          "internalType": "address",
          "name": "spender",
          "type": "address"
        },
        {
          "internalType": "uint256",
          "name": "subtractedValue",
          "type": "uint256"
        }
      ],
      "name": "decreaseAllowance",
      "outputs": [
        {
          "internalType": "bool",
          "name": "",
          "type": "bool"
        }
      ],
      "stateMutability": "nonpayable",
      "type": "function"
    },
    {
      "inputs": [
        {
          "internalType": "address",
          "name": "delegatee",
          "type": "address"
        }
      ],
      "name": "delegate",
      "outputs": [],
      "stateMutability": "nonpayable",
      "type": "function"
    },
    {
      "inputs": [
        {
          "internalType": "address",
          "name": "delegatee",
          "type": "address"
        },
        {
          "internalType": "uint256",
          "name": "nonce",
          "type": "uint256"
        },
        {
          "internalType": "uint256",
          "name": "expiry",
          "type": "uint256"
        },
        {
          "internalType": "uint8",
          "name": "v",
          "type": "uint8"
        },
        {
          "internalType": "bytes32",
          "name": "r",
          "type": "bytes32"
        },
        {
          "internalType": "bytes32",
          "name": "s",
          "type": "bytes32"
        }
      ],
      "name": "delegateBySig",
      "outputs": [],
      "stateMutability": "nonpayable",
      "type": "function"
    },
    {
      "inputs": [
        {
          "internalType": "address",
          "name": "account",
          "type": "address"
        }
      ],
      "name": "delegates",
      "outputs": [
        {
          "internalType": "address",
          "name": "",
          "type": "address"
        }
      ],
      "stateMutability": "view",
      "type": "function"
    },
    {
      "inputs": [],
      "name": "eip712Domain",
      "outputs": [
        {
          "internalType": "bytes1",
          "name": "fields",
          "type": "bytes1"
        },
        {
          "internalType": "string",
          "name": "name",
          "type": "string"
        },
        {
          "internalType": "string",
          "name": "version",
          "type": "string"
        },
        {
          "internalType": "uint256",
          "name": "chainId",
          "type": "uint256"
        },
        {
          "internalType": "address",
          "name": "verifyingContract",
          "type": "address"
        },
        {
          "internalType": "bytes32",
          "name": "salt",
          "type": "bytes32"
        },
        {
          "internalType": "uint256[]",
          "name": "extensions",
          "type": "uint256[]"
        }
      ],
      "stateMutability": "view",
      "type": "function"
    },
    {
      "inputs": [
        {
          "internalType": "uint256",
          "name": "timepoint",
          "type": "uint256"
        }
      ],
      "name": "getPastTotalSupply",
      "outputs": [
        {
          "internalType": "uint256",
          "name": "",
          "type": "uint256"
        }
      ],
      "stateMutability": "view",
      "type": "function"
    },
    {
      "inputs": [
        {
          "internalType": "address",
          "name": "account",
          "type": "address"
        },
        {
          "internalType": "uint256",
          "name": "timepoint",
          "type": "uint256"
        }
      ],
      "name": "getPastVotes",
      "outputs": [
        {
          "internalType": "uint256",
          "name": "",
          "type": "uint256"
        }
      ],
      "stateMutability": "view",
      "type": "function"
    },
    {
      "inputs": [
        {
          "internalType": "bytes32",
          "name": "role",
          "type": "bytes32"
        }
      ],
      "name": "getRoleAdmin",
      "outputs": [
        {
          "internalType": "bytes32",
          "name": "",
          "type": "bytes32"
        }
      ],
      "stateMutability": "view",
      "type": "function"
    },
    {
      "inputs": [
        {
          "internalType": "address",
          "name": "account",
          "type": "address"
        }
      ],
      "name": "getVotes",
      "outputs": [
        {
          "internalType": "uint256",
          "name": "",
          "type": "uint256"
        }
      ],
      "stateMutability": "view",
      "type": "function"
    },
    {
      "inputs": [
        {
          "internalType": "bytes32",
          "name": "role",
          "type": "bytes32"
        },
        {
          "internalType": "address",
          "name": "account",
          "type": "address"
        }
      ],
      "name": "grantRole",
      "outputs": [],
      "stateMutability": "nonpayable",
      "type": "function"
    },
    {
      "inputs": [
        {
          "internalType": "bytes32",
          "name": "role",
          "type": "bytes32"
        },
        {
          "internalType": "address",
          "name": "account",
          "type": "address"
        }
      ],
      "name": "hasRole",
      "outputs": [
        {
          "internalType": "bool",
          "name": "",
          "type": "bool"
        }
      ],
      "stateMutability": "view",
      "type": "function"
    },
    {
      "inputs": [
        {
          "internalType": "address",
          "name": "spender",
          "type": "address"
        },
        {
          "internalType": "uint256",
          "name": "addedValue",
          "type": "uint256"
        }
      ],
      "name": "increaseAllowance",
      "outputs": [
        {
          "internalType": "bool",
          "name": "",
          "type": "bool"
        }
      ],
      "stateMutability": "nonpayable",
      "type": "function"
    },
    {
      "inputs": [
        {
          "internalType": "address",
          "name": "to",
          "type": "address"
        },
        {
          "internalType": "uint256",
          "name": "amount",
          "type": "uint256"
        }
      ],
      "name": "mint",
      "outputs": [],
      "stateMutability": "nonpayable",
      "type": "function"
    },
    {
      "inputs": [],
      "name": "name",
      "outputs": [
        {
          "internalType": "string",
          "name": "",
          "type": "string"
        }
      ],
      "stateMutability": "view",
      "type": "function"
    },
    {
      "inputs": [
        {
          "internalType": "address",
          "name": "owner",
          "type": "address"
        }
      ],
      "name": "nonces",
      "outputs": [
        {
          "internalType": "uint256",
          "name": "",
          "type": "uint256"
        }
      ],
      "stateMutability": "view",
      "type": "function"
    },
    {
      "inputs": [
        {
          "internalType": "address",
          "name": "account",
          "type": "address"
        }
      ],
      "name": "numCheckpoints",
      "outputs": [
        {
          "internalType": "uint32",
          "name": "",
          "type": "uint32"
        }
      ],
      "stateMutability": "view",
      "type": "function"
    },
    {
      "inputs": [
        {
          "internalType": "address",
          "name": "owner",
          "type": "address"
        },
        {
          "internalType": "address",
          "name": "spender",
          "type": "address"
        },
        {
          "internalType": "uint256",
          "name": "value",
          "type": "uint256"
        },
        {
          "internalType": "uint256",
          "name": "deadline",
          "type": "uint256"
        },
        {
          "internalType": "uint8",
          "name": "v",
          "type": "uint8"
        },
        {
          "internalType": "bytes32",
          "name": "r",
          "type": "bytes32"
        },
        {
          "internalType": "bytes32",
          "name": "s",
          "type": "bytes32"
        }
      ],
      "name": "permit",
      "outputs": [],
      "stateMutability": "nonpayable",
      "type": "function"
    },
    {
      "inputs": [
        {
          "internalType": "bytes32",
          "name": "role",
          "type": "bytes32"
        },
        {
          "internalType": "address",
          "name": "account",
          "type": "address"
        }
      ],
      "name": "renounceRole",
      "outputs": [],
      "stateMutability": "nonpayable",
      "type": "function"
    },
    {
      "inputs": [
        {
          "internalType": "bytes32",
          "name": "role",
          "type": "bytes32"
        },
        {
          "internalType": "address",
          "name": "account",
          "type": "address"
        }
      ],
      "name": "revokeRole",
      "outputs": [],
      "stateMutability": "nonpayable",
      "type": "function"
    },
    {
      "inputs": [
        {
          "internalType": "bytes4",
          "name": "interfaceId",
          "type": "bytes4"
        }
      ],
      "name": "supportsInterface",
      "outputs": [
        {
          "internalType": "bool",
          "name": "",
          "type": "bool"
        }
      ],
      "stateMutability": "view",
      "type": "function"
    },
    {
      "inputs": [],
      "name": "symbol",
      "outputs": [
        {
          "internalType": "string",
          "name": "",
          "type": "string"
        }
      ],
      "stateMutability": "view",
      "type": "function"
    },
    {
      "inputs": [],
      "name": "totalSupply",
      "outputs": [
        {
          "internalType": "uint256",
          "name": "",
          "type": "uint256"
        }
      ],
      "stateMutability": "view",
      "type": "function"
    },
    {
      "inputs": [
        {
          "internalType": "address",
          "name": "to",
          "type": "address"
        },
        {
          "internalType": "uint256",
          "name": "amount",
          "type": "uint256"
        }
      ],
      "name": "transfer",
      "outputs": [
        {
          "internalType": "bool",
          "name": "",
          "type": "bool"
        }
      ],
      "stateMutability": "nonpayable",
      "type": "function"
    },
    {
      "inputs": [
        {
          "internalType": "address",
          "name": "from",
          "type": "address"
        },
        {
          "internalType": "address",
          "name": "to",
          "type": "address"
        },
        {
          "internalType": "uint256",
          "name": "amount",
          "type": "uint256"
        }
      ],
      "name": "transferFrom",
      "outputs": [
        {
          "internalType": "bool",
          "name": "",
          "type": "bool"
        }
      ],
      "stateMutability": "nonpayable",
      "type": "function"
    }
  ],
  "bytecode": "0x6101606040523480156200001257600080fd5b506040518060400160405280600781526020017f4d79546f6b656e00000000000000000000000000000000000000000000000000815250806040518060400160405280600181526020017f31000000000000000000000000000000000000000000000000000000000000008152506040518060400160405280600781526020017f4d79546f6b656e000000000000000000000000000000000000000000000000008152506040518060400160405280600381526020017f4d544b00000000000000000000000000000000000000000000000000000000008152508160039081620000fd9190620006e9565b5080600490816200010f9190620006e9565b50505062000128600683620001de60201b90919060201c565b610120818152505062000146600782620001de60201b90919060201c565b6101408181525050818051906020012060e08181525050808051906020012061010081815250504660a08181525050620001856200023660201b60201c565b608081815250503073ffffffffffffffffffffffffffffffffffffffff1660c08173ffffffffffffffffffffffffffffffffffffffff1681525050505050620001d86000801b336200029360201b60201c565b620009f3565b60006020835110156200020457620001fc836200038560201b60201c565b905062000230565b826200021683620003f260201b60201c565b6000019081620002279190620006e9565b5060ff60001b90505b92915050565b60007f8b73c3c69bb8fe3d512ecc4cf759cc79239f7b179b0ffacaa9a75d522b39400f60e0516101005146306040516020016200027895949392919062000841565b60405160208183030381529060405280519060200120905090565b620002a58282620003fc60201b60201c565b620003815760016005600084815260200190815260200160002060000160008373ffffffffffffffffffffffffffffffffffffffff1673ffffffffffffffffffffffffffffffffffffffff16815260200190815260200160002060006101000a81548160ff021916908315150217905550620003266200046760201b60201c565b73ffffffffffffffffffffffffffffffffffffffff168173ffffffffffffffffffffffffffffffffffffffff16837f2f8788117e7eff1d82e926ec794901d17c78024a50270940304540a733656f0d60405160405180910390a45b5050565b600080829050601f81511115620003d557826040517f305a27a9000000000000000000000000000000000000000000000000000000008152600401620003cc91906200092d565b60405180910390fd5b805181620003e39062000983565b60001c1760001b915050919050565b6000819050919050565b60006005600084815260200190815260200160002060000160008373ffffffffffffffffffffffffffffffffffffffff1673ffffffffffffffffffffffffffffffffffffffff16815260200190815260200160002060009054906101000a900460ff16905092915050565b600033905090565b600081519050919050565b7f4e487b7100000000000000000000000000000000000000000000000000000000600052604160045260246000fd5b7f4e487b7100000000000000000000000000000000000000000000000000000000600052602260045260246000fd5b60006002820490506001821680620004f157607f821691505b602082108103620005075762000506620004a9565b5b50919050565b60008190508160005260206000209050919050565b60006020601f8301049050919050565b600082821b905092915050565b600060088302620005717fffffffffffffffffffffffffffffffffffffffffffffffffffffffffffffffff8262000532565b6200057d868362000532565b95508019841693508086168417925050509392505050565b6000819050919050565b6000819050919050565b6000620005ca620005c4620005be8462000595565b6200059f565b62000595565b9050919050565b6000819050919050565b620005e683620005a9565b620005fe620005f582620005d1565b8484546200053f565b825550505050565b600090565b6200061562000606565b62000622818484620005db565b505050565b5b818110156200064a576200063e6000826200060b565b60018101905062000628565b5050565b601f821115620006995762000663816200050d565b6200066e8462000522565b810160208510156200067e578190505b620006966200068d8562000522565b83018262000627565b50505b505050565b600082821c905092915050565b6000620006be600019846008026200069e565b1980831691505092915050565b6000620006d98383620006ab565b9150826002028217905092915050565b620006f4826200046f565b67ffffffffffffffff81111562000710576200070f6200047a565b5b6200071c8254620004d8565b620007298282856200064e565b600060209050601f8311600181146200076157600084156200074c578287015190505b620007588582620006cb565b865550620007c8565b601f19841662000771866200050d565b60005b828110156200079b5784890151825560018201915060208501945060208101905062000774565b86831015620007bb5784890151620007b7601f891682620006ab565b8355505b6001600288020188555050505b505050505050565b6000819050919050565b620007e581620007d0565b82525050565b620007f68162000595565b82525050565b600073ffffffffffffffffffffffffffffffffffffffff82169050919050565b60006200082982620007fc565b9050919050565b6200083b816200081c565b82525050565b600060a082019050620008586000830188620007da565b620008676020830187620007da565b620008766040830186620007da565b620008856060830185620007eb565b62000894608083018462000830565b9695505050505050565b600082825260208201905092915050565b60005b83811015620008cf578082015181840152602081019050620008b2565b60008484015250505050565b6000601f19601f8301169050919050565b6000620008f9826200046f565b6200090581856200089e565b935062000917818560208601620008af565b6200092281620008db565b840191505092915050565b60006020820190508181036000830152620009498184620008ec565b905092915050565b600081519050919050565b6000819050602082019050919050565b60006200097a8251620007d0565b80915050919050565b6000620009908262000951565b826200099c846200095c565b9050620009a9816200096c565b92506020821015620009ec57620009e77fffffffffffffffffffffffffffffffffffffffffffffffffffffffffffffffff8360200360080262000532565b831692505b5050919050565b60805160a05160c05160e051610100516101205161014051614adf62000a4e6000396000610c7201526000610c3e0152600061216a0152600061214901526000611a7c01526000611ad201526000611afb0152614adf6000f3fe608060405234801561001057600080fd5b50600436106101fb5760003560e01c80636fcfff451161011a5780639ab24eb0116100ad578063c3cda5201161007c578063c3cda52014610654578063d505accf14610670578063d547741f1461068c578063dd62ed3e146106a8578063f1127ed8146106d8576101fb565b80639ab24eb0146105a6578063a217fddf146105d6578063a457c2d7146105f4578063a9059cbb14610624576101fb565b80638e539e8c116100e95780638e539e8c1461050a57806391d148541461053a57806391ddadf41461056a57806395d89b4114610588576101fb565b80636fcfff451461045657806370a08231146104865780637ecebe00146104b657806384b0196e146104e6576101fb565b80633644e5151161019257806340c10f191161016157806340c10f19146103d05780634bf5d7e9146103ec578063587cde1e1461040a5780635c19a95c1461043a576101fb565b80633644e5151461033657806336568abe1461035457806339509351146103705780633a46b1a8146103a0576101fb565b806323b872dd116101ce57806323b872dd1461029c578063248a9ca3146102cc5780632f2ff15d146102fc578063313ce56714610318576101fb565b806301ffc9a71461020057806306fdde0314610230578063095ea7b31461024e57806318160ddd1461027e575b600080fd5b61021a600480360381019061021591906131f1565b610708565b6040516102279190613239565b60405180910390f35b610238610782565b60405161024591906132e4565b60405180910390f35b6102686004803603810190610263919061339a565b610814565b6040516102759190613239565b60405180910390f35b610286610837565b60405161029391906133e9565b60405180910390f35b6102b660048036038101906102b19190613404565b610841565b6040516102c39190613239565b60405180910390f35b6102e660048036038101906102e1919061348d565b610870565b6040516102f391906134c9565b60405180910390f35b610316600480360381019061031191906134e4565b610890565b005b6103206108b1565b60405161032d9190613540565b60405180910390f35b61033e6108ba565b60405161034b91906134c9565b60405180910390f35b61036e600480360381019061036991906134e4565b6108c9565b005b61038a6004803603810190610385919061339a565b61094c565b6040516103979190613239565b60405180910390f35b6103ba60048036038101906103b5919061339a565b610983565b6040516103c791906133e9565b60405180910390f35b6103ea60048036038101906103e5919061339a565b610a26565b005b6103f4610a34565b60405161040191906132e4565b60405180910390f35b610424600480360381019061041f919061355b565b610ac2565b6040516104319190613597565b60405180910390f35b610454600480360381019061044f919061355b565b610b2b565b005b610470600480360381019061046b919061355b565b610b3f565b60405161047d91906135d1565b60405180910390f35b6104a0600480360381019061049b919061355b565b610b93565b6040516104ad91906133e9565b60405180910390f35b6104d060048036038101906104cb919061355b565b610bdb565b6040516104dd91906133e9565b60405180910390f35b6104ee610c2b565b60405161050197969594939291906136e5565b60405180910390f35b610524600480360381019061051f9190613769565b610d2d565b60405161053191906133e9565b60405180910390f35b610554600480360381019061054f91906134e4565b610d92565b6040516105619190613239565b60405180910390f35b610572610dfd565b60405161057f91906137b7565b60405180910390f35b610590610e0d565b60405161059d91906132e4565b60405180910390f35b6105c060048036038101906105bb919061355b565b610e9f565b6040516105cd91906133e9565b60405180910390f35b6105de610fa7565b6040516105eb91906134c9565b60405180910390f35b61060e6004803603810190610609919061339a565b610fae565b60405161061b9190613239565b60405180910390f35b61063e6004803603810190610639919061339a565b611025565b60405161064b9190613239565b60405180910390f35b61066e600480360381019061066991906137fe565b611048565b005b61068a6004803603810190610685919061388b565b61114c565b005b6106a660048036038101906106a191906134e4565b61128e565b005b6106c260048036038101906106bd919061392d565b6112af565b6040516106cf91906133e9565b60405180910390f35b6106f260048036038101906106ed9190613999565b611336565b6040516106ff9190613a4e565b60405180910390f35b60007f7965db0b000000000000000000000000000000000000000000000000000000007bffffffffffffffffffffffffffffffffffffffffffffffffffffffff1916827bffffffffffffffffffffffffffffffffffffffffffffffffffffffff1916148061077b575061077a82611446565b5b9050919050565b60606003805461079190613a98565b80601f01602080910402602001604051908101604052809291908181526020018280546107bd90613a98565b801561080a5780601f106107df5761010080835404028352916020019161080a565b820191906000526020600020905b8154815290600101906020018083116107ed57829003601f168201915b5050505050905090565b60008061081f6114b0565b905061082c8185856114b8565b600191505092915050565b6000600254905090565b60008061084c6114b0565b9050610859858285611681565b61086485858561170d565b60019150509392505050565b600060056000838152602001908152602001600020600101549050919050565b61089982610870565b6108a281611983565b6108ac8383611997565b505050565b60006012905090565b60006108c4611a78565b905090565b6108d16114b0565b73ffffffffffffffffffffffffffffffffffffffff168173ffffffffffffffffffffffffffffffffffffffff161461093e576040517f08c379a000000000000000000000000000000000000000000000000000000000815260040161093590613b3b565b60405180910390fd5b6109488282611b2f565b5050565b6000806109576114b0565b905061097881858561096985896112af565b6109739190613b8a565b6114b8565b600191505092915050565b600061098d610dfd565b65ffffffffffff1682106109d6576040517f08c379a00000000000000000000000000000000000000000000000000000000081526004016109cd90613c0a565b60405180910390fd5b610a1e600b60008573ffffffffffffffffffffffffffffffffffffffff1673ffffffffffffffffffffffffffffffffffffffff16815260200190815260200160002083611c11565b905092915050565b610a308282611d59565b5050565b606043610a3f610dfd565b65ffffffffffff1614610a87576040517f08c379a0000000000000000000000000000000000000000000000000000000008152600401610a7e90613c76565b60405180910390fd5b6040518060400160405280601d81526020017f6d6f64653d626c6f636b6e756d6265722666726f6d3d64656661756c74000000815250905090565b6000600a60008373ffffffffffffffffffffffffffffffffffffffff1673ffffffffffffffffffffffffffffffffffffffff16815260200190815260200160002060009054906101000a900473ffffffffffffffffffffffffffffffffffffffff169050919050565b610b3c610b366114b0565b82611d67565b50565b6000610b8c600b60008473ffffffffffffffffffffffffffffffffffffffff1673ffffffffffffffffffffffffffffffffffffffff16815260200190815260200160002080549050611e81565b9050919050565b60008060008373ffffffffffffffffffffffffffffffffffffffff1673ffffffffffffffffffffffffffffffffffffffff168152602001908152602001600020549050919050565b6000610c24600860008473ffffffffffffffffffffffffffffffffffffffff1673ffffffffffffffffffffffffffffffffffffffff168152602001908152602001600020611ed4565b9050919050565b600060608060008060006060610c6b60067f0000000000000000000000000000000000000000000000000000000000000000611ee290919063ffffffff16565b610c9f60077f0000000000000000000000000000000000000000000000000000000000000000611ee290919063ffffffff16565b46306000801b600067ffffffffffffffff811115610cc057610cbf613c96565b5b604051908082528060200260200182016040528015610cee5781602001602082028036833780820191505090505b507f0f00000000000000000000000000000000000000000000000000000000000000959493929190965096509650965096509650965090919293949596565b6000610d37610dfd565b65ffffffffffff168210610d80576040517f08c379a0000000000000000000000000000000000000000000000000000000008152600401610d7790613c0a565b60405180910390fd5b610d8b600c83611c11565b9050919050565b60006005600084815260200190815260200160002060000160008373ffffffffffffffffffffffffffffffffffffffff1673ffffffffffffffffffffffffffffffffffffffff16815260200190815260200160002060009054906101000a900460ff16905092915050565b6000610e0843611f92565b905090565b606060048054610e1c90613a98565b80601f0160208091040260200160405190810160405280929190818152602001828054610e4890613a98565b8015610e955780601f10610e6a57610100808354040283529160200191610e95565b820191906000526020600020905b815481529060010190602001808311610e7857829003601f168201915b5050505050905090565b600080600b60008473ffffffffffffffffffffffffffffffffffffffff1673ffffffffffffffffffffffffffffffffffffffff16815260200190815260200160002080549050905060008114610f7e57600b60008473ffffffffffffffffffffffffffffffffffffffff1673ffffffffffffffffffffffffffffffffffffffff1681526020019081526020016000206001820381548110610f4357610f42613cc5565b5b9060005260206000200160000160049054906101000a90047bffffffffffffffffffffffffffffffffffffffffffffffffffffffff16610f81565b60005b7bffffffffffffffffffffffffffffffffffffffffffffffffffffffff16915050919050565b6000801b81565b600080610fb96114b0565b90506000610fc782866112af565b90508381101561100c576040517f08c379a000000000000000000000000000000000000000000000000000000000815260040161100390613d66565b60405180910390fd5b61101982868684036114b8565b60019250505092915050565b6000806110306114b0565b905061103d81858561170d565b600191505092915050565b8342111561108b576040517f08c379a000000000000000000000000000000000000000000000000000000000815260040161108290613dd2565b60405180910390fd5b60006110ed6110e57fe48329057bfd03d55e49b547132e39cffd9c1820ad7b9d4c5307691425d15adf8989896040516020016110ca9493929190613df2565b60405160208183030381529060405280519060200120611fe7565b858585612001565b90506110f88161202c565b8614611139576040517f08c379a000000000000000000000000000000000000000000000000000000000815260040161113090613e83565b60405180910390fd5b6111438188611d67565b50505050505050565b8342111561118f576040517f08c379a000000000000000000000000000000000000000000000000000000000815260040161118690613eef565b60405180910390fd5b60007f6e71edae12b1b97f4d1f60370fef10105fa2faae0126114a169c64845d6126c98888886111be8c61202c565b896040516020016111d496959493929190613f0f565b60405160208183030381529060405280519060200120905060006111f782611fe7565b9050600061120782878787612001565b90508973ffffffffffffffffffffffffffffffffffffffff168173ffffffffffffffffffffffffffffffffffffffff1614611277576040517f08c379a000000000000000000000000000000000000000000000000000000000815260040161126e90613fbc565b60405180910390fd5b6112828a8a8a6114b8565b50505050505050505050565b61129782610870565b6112a081611983565b6112aa8383611b2f565b505050565b6000600160008473ffffffffffffffffffffffffffffffffffffffff1673ffffffffffffffffffffffffffffffffffffffff16815260200190815260200160002060008373ffffffffffffffffffffffffffffffffffffffff1673ffffffffffffffffffffffffffffffffffffffff16815260200190815260200160002054905092915050565b61133e613156565b600b60008473ffffffffffffffffffffffffffffffffffffffff1673ffffffffffffffffffffffffffffffffffffffff1681526020019081526020016000208263ffffffff168154811061139557611394613cc5565b5b906000526020600020016040518060400160405290816000820160009054906101000a900463ffffffff1663ffffffff1663ffffffff1681526020016000820160049054906101000a90047bffffffffffffffffffffffffffffffffffffffffffffffffffffffff167bffffffffffffffffffffffffffffffffffffffffffffffffffffffff167bffffffffffffffffffffffffffffffffffffffffffffffffffffffff1681525050905092915050565b60007f01ffc9a7000000000000000000000000000000000000000000000000000000007bffffffffffffffffffffffffffffffffffffffffffffffffffffffff1916827bffffffffffffffffffffffffffffffffffffffffffffffffffffffff1916149050919050565b600033905090565b600073ffffffffffffffffffffffffffffffffffffffff168373ffffffffffffffffffffffffffffffffffffffff1603611527576040517f08c379a000000000000000000000000000000000000000000000000000000000815260040161151e9061404e565b60405180910390fd5b600073ffffffffffffffffffffffffffffffffffffffff168273ffffffffffffffffffffffffffffffffffffffff1603611596576040517f08c379a000000000000000000000000000000000000000000000000000000000815260040161158d906140e0565b60405180910390fd5b80600160008573ffffffffffffffffffffffffffffffffffffffff1673ffffffffffffffffffffffffffffffffffffffff16815260200190815260200160002060008473ffffffffffffffffffffffffffffffffffffffff1673ffffffffffffffffffffffffffffffffffffffff168152602001908152602001600020819055508173ffffffffffffffffffffffffffffffffffffffff168373ffffffffffffffffffffffffffffffffffffffff167f8c5be1e5ebec7d5bd14f71427d1e84f3dd0314c0f7b2291e5b200ac8c7c3b9258360405161167491906133e9565b60405180910390a3505050565b600061168d84846112af565b90507fffffffffffffffffffffffffffffffffffffffffffffffffffffffffffffffff811461170757818110156116f9576040517f08c379a00000000000000000000000000000000000000000000000000000000081526004016116f09061414c565b60405180910390fd5b61170684848484036114b8565b5b50505050565b600073ffffffffffffffffffffffffffffffffffffffff168373ffffffffffffffffffffffffffffffffffffffff160361177c576040517f08c379a0000000000000000000000000000000000000000000000000000000008152600401611773906141de565b60405180910390fd5b600073ffffffffffffffffffffffffffffffffffffffff168273ffffffffffffffffffffffffffffffffffffffff16036117eb576040517f08c379a00000000000000000000000000000000000000000000000000000000081526004016117e290614270565b60405180910390fd5b6117f683838361208a565b60008060008573ffffffffffffffffffffffffffffffffffffffff1673ffffffffffffffffffffffffffffffffffffffff1681526020019081526020016000205490508181101561187c576040517f08c379a000000000000000000000000000000000000000000000000000000000815260040161187390614302565b60405180910390fd5b8181036000808673ffffffffffffffffffffffffffffffffffffffff1673ffffffffffffffffffffffffffffffffffffffff16815260200190815260200160002081905550816000808573ffffffffffffffffffffffffffffffffffffffff1673ffffffffffffffffffffffffffffffffffffffff168152602001908152602001600020600082825401925050819055508273ffffffffffffffffffffffffffffffffffffffff168473ffffffffffffffffffffffffffffffffffffffff167fddf252ad1be2c89b69c2b068fc378daa952ba7f163c4a11628f55a4df523b3ef8460405161196a91906133e9565b60405180910390a361197d84848461208f565b50505050565b6119948161198f6114b0565b61209f565b50565b6119a18282610d92565b611a745760016005600084815260200190815260200160002060000160008373ffffffffffffffffffffffffffffffffffffffff1673ffffffffffffffffffffffffffffffffffffffff16815260200190815260200160002060006101000a81548160ff021916908315150217905550611a196114b0565b73ffffffffffffffffffffffffffffffffffffffff168173ffffffffffffffffffffffffffffffffffffffff16837f2f8788117e7eff1d82e926ec794901d17c78024a50270940304540a733656f0d60405160405180910390a45b5050565b60007f000000000000000000000000000000000000000000000000000000000000000073ffffffffffffffffffffffffffffffffffffffff163073ffffffffffffffffffffffffffffffffffffffff16148015611af457507f000000000000000000000000000000000000000000000000000000000000000046145b15611b21577f00000000000000000000000000000000000000000000000000000000000000009050611b2c565b611b29612124565b90505b90565b611b398282610d92565b15611c0d5760006005600084815260200190815260200160002060000160008373ffffffffffffffffffffffffffffffffffffffff1673ffffffffffffffffffffffffffffffffffffffff16815260200190815260200160002060006101000a81548160ff021916908315150217905550611bb26114b0565b73ffffffffffffffffffffffffffffffffffffffff168173ffffffffffffffffffffffffffffffffffffffff16837ff6391f5c32d9c69d2a47ea670b442974b53935d1edc7fd64eb21e047a839171b60405160405180910390a45b5050565b600080838054905090506000808290506005831115611c87576000611c35846121ba565b84611c409190614322565b905085611c4d88836122b3565b60000160009054906101000a900463ffffffff1663ffffffff161115611c7557809150611c85565b600181611c829190613b8a565b92505b505b5b80821015611ce7576000611c9c83836122c8565b905085611ca988836122b3565b60000160009054906101000a900463ffffffff1663ffffffff161115611cd157809150611ce1565b600181611cde9190613b8a565b92505b50611c88565b60008114611d2d57611cfc86600183036122b3565b60000160049054906101000a90047bffffffffffffffffffffffffffffffffffffffffffffffffffffffff16611d30565b60005b7bffffffffffffffffffffffffffffffffffffffffffffffffffffffff16935050505092915050565b611d6382826122ee565b5050565b6000611d7283610ac2565b90506000611d7f84610b93565b905082600a60008673ffffffffffffffffffffffffffffffffffffffff1673ffffffffffffffffffffffffffffffffffffffff16815260200190815260200160002060006101000a81548173ffffffffffffffffffffffffffffffffffffffff021916908373ffffffffffffffffffffffffffffffffffffffff1602179055508273ffffffffffffffffffffffffffffffffffffffff168273ffffffffffffffffffffffffffffffffffffffff168573ffffffffffffffffffffffffffffffffffffffff167f3134e8a2e6d97e929a7e54011ea5485d7d196dd5f0ba4d4ef95803e8e3fc257f60405160405180910390a4611e7b82848361237b565b50505050565b600063ffffffff8016821115611ecc576040517f08c379a0000000000000000000000000000000000000000000000000000000008152600401611ec3906143c8565b60405180910390fd5b819050919050565b600081600001549050919050565b606060ff60001b8314611eff57611ef883612574565b9050611f8c565b818054611f0b90613a98565b80601f0160208091040260200160405190810160405280929190818152602001828054611f3790613a98565b8015611f845780601f10611f5957610100808354040283529160200191611f84565b820191906000526020600020905b815481529060010190602001808311611f6757829003601f168201915b505050505090505b92915050565b600065ffffffffffff8016821115611fdf576040517f08c379a0000000000000000000000000000000000000000000000000000000008152600401611fd69061445a565b60405180910390fd5b819050919050565b6000611ffa611ff4611a78565b836125e8565b9050919050565b600080600061201287878787612629565b9150915061201f8161270b565b8192505050949350505050565b600080600860008473ffffffffffffffffffffffffffffffffffffffff1673ffffffffffffffffffffffffffffffffffffffff168152602001908152602001600020905061207981611ed4565b915061208481612871565b50919050565b505050565b61209a838383612887565b505050565b6120a98282610d92565b612120576120b6816128b2565b6120c48360001c60206128df565b6040516020016120d592919061454e565b6040516020818303038152906040526040517f08c379a000000000000000000000000000000000000000000000000000000000815260040161211791906132e4565b60405180910390fd5b5050565b60007f8b73c3c69bb8fe3d512ecc4cf759cc79239f7b179b0ffacaa9a75d522b39400f7f00000000000000000000000000000000000000000000000000000000000000007f0000000000000000000000000000000000000000000000000000000000000000463060405160200161219f959493929190614588565b60405160208183030381529060405280519060200120905090565b60008082036121cc57600090506122ae565b600060016121d984612b1b565b901c6001901b905060018184816121f3576121f26145db565b5b048201901c9050600181848161220c5761220b6145db565b5b048201901c90506001818481612225576122246145db565b5b048201901c9050600181848161223e5761223d6145db565b5b048201901c90506001818481612257576122566145db565b5b048201901c905060018184816122705761226f6145db565b5b048201901c90506001818481612289576122886145db565b5b048201901c90506122aa818285816122a4576122a36145db565b5b04612bfc565b9150505b919050565b60008260005281602060002001905092915050565b600060028284186122d9919061460a565b8284166122e69190613b8a565b905092915050565b6122f88282612c15565b612300612d6b565b7bffffffffffffffffffffffffffffffffffffffffffffffffffffffff16612326610837565b1115612367576040517f08c379a000000000000000000000000000000000000000000000000000000000815260040161235e906146ad565b60405180910390fd5b612375600c612d8f83612da5565b50505050565b8173ffffffffffffffffffffffffffffffffffffffff168373ffffffffffffffffffffffffffffffffffffffff16141580156123b75750600081115b1561256f57600073ffffffffffffffffffffffffffffffffffffffff168373ffffffffffffffffffffffffffffffffffffffff16146124955760008061243e600b60008773ffffffffffffffffffffffffffffffffffffffff1673ffffffffffffffffffffffffffffffffffffffff16815260200190815260200160002061308085612da5565b915091508473ffffffffffffffffffffffffffffffffffffffff167fdec2bacdd2f05b59de34da9b523dff8be42e5e38e818c82fdb0bae774387a724838360405161248a9291906146cd565b60405180910390a250505b600073ffffffffffffffffffffffffffffffffffffffff168273ffffffffffffffffffffffffffffffffffffffff161461256e57600080612517600b60008673ffffffffffffffffffffffffffffffffffffffff1673ffffffffffffffffffffffffffffffffffffffff168152602001908152602001600020612d8f85612da5565b915091508373ffffffffffffffffffffffffffffffffffffffff167fdec2bacdd2f05b59de34da9b523dff8be42e5e38e818c82fdb0bae774387a72483836040516125639291906146cd565b60405180910390a250505b5b505050565b6060600061258183613096565b90506000602067ffffffffffffffff8111156125a05761259f613c96565b5b6040519080825280601f01601f1916602001820160405280156125d25781602001600182028036833780820191505090505b5090508181528360208201528092505050919050565b60006040517f190100000000000000000000000000000000000000000000000000000000000081528360028201528260228201526042812091505092915050565b6000807f7fffffffffffffffffffffffffffffff5d576e7357a4501ddfe92f46681b20a08360001c1115612664576000600391509150612702565b60006001878787876040516000815260200160405260405161268994939291906146f6565b6020604051602081039080840390855afa1580156126ab573d6000803e3d6000fd5b505050602060405103519050600073ffffffffffffffffffffffffffffffffffffffff168173ffffffffffffffffffffffffffffffffffffffff16036126f957600060019250925050612702565b80600092509250505b94509492505050565b6000600481111561271f5761271e61473b565b5b8160048111156127325761273161473b565b5b031561286e576001600481111561274c5761274b61473b565b5b81600481111561275f5761275e61473b565b5b0361279f576040517f08c379a0000000000000000000000000000000000000000000000000000000008152600401612796906147b6565b60405180910390fd5b600260048111156127b3576127b261473b565b5b8160048111156127c6576127c561473b565b5b03612806576040517f08c379a00000000000000000000000000000000000000000000000000000000081526004016127fd90614822565b60405180910390fd5b6003600481111561281a5761281961473b565b5b81600481111561282d5761282c61473b565b5b0361286d576040517f08c379a0000000000000000000000000000000000000000000000000000000008152600401612864906148b4565b60405180910390fd5b5b50565b6001816000016000828254019250508190555050565b6128928383836130e6565b6128ad61289e84610ac2565b6128a784610ac2565b8361237b565b505050565b60606128d88273ffffffffffffffffffffffffffffffffffffffff16601460ff166128df565b9050919050565b6060600060028360026128f291906148d4565b6128fc9190613b8a565b67ffffffffffffffff81111561291557612914613c96565b5b6040519080825280601f01601f1916602001820160405280156129475781602001600182028036833780820191505090505b5090507f30000000000000000000000000000000000000000000000000000000000000008160008151811061297f5761297e613cc5565b5b60200101907effffffffffffffffffffffffffffffffffffffffffffffffffffffffffffff1916908160001a9053507f7800000000000000000000000000000000000000000000000000000000000000816001815181106129e3576129e2613cc5565b5b60200101907effffffffffffffffffffffffffffffffffffffffffffffffffffffffffffff1916908160001a90535060006001846002612a2391906148d4565b612a2d9190613b8a565b90505b6001811115612acd577f3031323334353637383961626364656600000000000000000000000000000000600f861660108110612a6f57612a6e613cc5565b5b1a60f81b828281518110612a8657612a85613cc5565b5b60200101907effffffffffffffffffffffffffffffffffffffffffffffffffffffffffffff1916908160001a905350600485901c945080612ac690614916565b9050612a30565b5060008414612b11576040517f08c379a0000000000000000000000000000000000000000000000000000000008152600401612b089061498b565b60405180910390fd5b8091505092915050565b600080600090506000608084901c1115612b3d57608083901c92506080810190505b6000604084901c1115612b5857604083901c92506040810190505b6000602084901c1115612b7357602083901c92506020810190505b6000601084901c1115612b8e57601083901c92506010810190505b6000600884901c1115612ba957600883901c92506008810190505b6000600484901c1115612bc457600483901c92506004810190505b6000600284901c1115612bdf57600283901c92506002810190505b6000600184901c1115612bf3576001810190505b80915050919050565b6000818310612c0b5781612c0d565b825b905092915050565b600073ffffffffffffffffffffffffffffffffffffffff168273ffffffffffffffffffffffffffffffffffffffff1603612c84576040517f08c379a0000000000000000000000000000000000000000000000000000000008152600401612c7b906149f7565b60405180910390fd5b612c906000838361208a565b8060026000828254612ca29190613b8a565b92505081905550806000808473ffffffffffffffffffffffffffffffffffffffff1673ffffffffffffffffffffffffffffffffffffffff168152602001908152602001600020600082825401925050819055508173ffffffffffffffffffffffffffffffffffffffff16600073ffffffffffffffffffffffffffffffffffffffff167fddf252ad1be2c89b69c2b068fc378daa952ba7f163c4a11628f55a4df523b3ef83604051612d5391906133e9565b60405180910390a3612d676000838361208f565b5050565b60007bffffffffffffffffffffffffffffffffffffffffffffffffffffffff905090565b60008183612d9d9190613b8a565b905092915050565b6000806000858054905090506000808214612e6b57612dc787600184036122b3565b6040518060400160405290816000820160009054906101000a900463ffffffff1663ffffffff1663ffffffff1681526020016000820160049054906101000a90047bffffffffffffffffffffffffffffffffffffffffffffffffffffffff167bffffffffffffffffffffffffffffffffffffffffffffffffffffffff167bffffffffffffffffffffffffffffffffffffffffffffffffffffffff1681525050612ea7565b6040518060400160405280600063ffffffff16815260200160007bffffffffffffffffffffffffffffffffffffffffffffffffffffffff168152505b905080602001517bffffffffffffffffffffffffffffffffffffffffffffffffffffffff169350612edc84868863ffffffff16565b9250600082118015612f065750612ef1610dfd565b65ffffffffffff16816000015163ffffffff16145b15612f7757612f14836130eb565b612f2188600185036122b3565b60000160046101000a8154817bffffffffffffffffffffffffffffffffffffffffffffffffffffffff02191690837bffffffffffffffffffffffffffffffffffffffffffffffffffffffff160217905550613076565b866040518060400160405280612f9b612f8e610dfd565b65ffffffffffff16611e81565b63ffffffff168152602001612faf866130eb565b7bffffffffffffffffffffffffffffffffffffffffffffffffffffffff168152509080600181540180825580915050600190039060005260206000200160009091909190915060008201518160000160006101000a81548163ffffffff021916908363ffffffff16021790555060208201518160000160046101000a8154817bffffffffffffffffffffffffffffffffffffffffffffffffffffffff02191690837bffffffffffffffffffffffffffffffffffffffffffffffffffffffff16021790555050505b5050935093915050565b6000818361308e9190614322565b905092915050565b60008060ff8360001c169050601f8111156130dd576040517fb3512b0c00000000000000000000000000000000000000000000000000000000815260040160405180910390fd5b80915050919050565b505050565b60007bffffffffffffffffffffffffffffffffffffffffffffffffffffffff801682111561314e576040517f08c379a000000000000000000000000000000000000000000000000000000000815260040161314590614a89565b60405180910390fd5b819050919050565b6040518060400160405280600063ffffffff16815260200160007bffffffffffffffffffffffffffffffffffffffffffffffffffffffff1681525090565b600080fd5b60007fffffffff0000000000000000000000000000000000000000000000000000000082169050919050565b6131ce81613199565b81146131d957600080fd5b50565b6000813590506131eb816131c5565b92915050565b60006020828403121561320757613206613194565b5b6000613215848285016131dc565b91505092915050565b60008115159050919050565b6132338161321e565b82525050565b600060208201905061324e600083018461322a565b92915050565b600081519050919050565b600082825260208201905092915050565b60005b8381101561328e578082015181840152602081019050613273565b60008484015250505050565b6000601f19601f8301169050919050565b60006132b682613254565b6132c0818561325f565b93506132d0818560208601613270565b6132d98161329a565b840191505092915050565b600060208201905081810360008301526132fe81846132ab565b905092915050565b600073ffffffffffffffffffffffffffffffffffffffff82169050919050565b600061333182613306565b9050919050565b61334181613326565b811461334c57600080fd5b50565b60008135905061335e81613338565b92915050565b6000819050919050565b61337781613364565b811461338257600080fd5b50565b6000813590506133948161336e565b92915050565b600080604083850312156133b1576133b0613194565b5b60006133bf8582860161334f565b92505060206133d085828601613385565b9150509250929050565b6133e381613364565b82525050565b60006020820190506133fe60008301846133da565b92915050565b60008060006060848603121561341d5761341c613194565b5b600061342b8682870161334f565b935050602061343c8682870161334f565b925050604061344d86828701613385565b9150509250925092565b6000819050919050565b61346a81613457565b811461347557600080fd5b50565b60008135905061348781613461565b92915050565b6000602082840312156134a3576134a2613194565b5b60006134b184828501613478565b91505092915050565b6134c381613457565b82525050565b60006020820190506134de60008301846134ba565b92915050565b600080604083850312156134fb576134fa613194565b5b600061350985828601613478565b925050602061351a8582860161334f565b9150509250929050565b600060ff82169050919050565b61353a81613524565b82525050565b60006020820190506135556000830184613531565b92915050565b60006020828403121561357157613570613194565b5b600061357f8482850161334f565b91505092915050565b61359181613326565b82525050565b60006020820190506135ac6000830184613588565b92915050565b600063ffffffff82169050919050565b6135cb816135b2565b82525050565b60006020820190506135e660008301846135c2565b92915050565b60007fff0000000000000000000000000000000000000000000000000000000000000082169050919050565b613621816135ec565b82525050565b600081519050919050565b600082825260208201905092915050565b6000819050602082019050919050565b61365c81613364565b82525050565b600061366e8383613653565b60208301905092915050565b6000602082019050919050565b600061369282613627565b61369c8185613632565b93506136a783613643565b8060005b838110156136d85781516136bf8882613662565b97506136ca8361367a565b9250506001810190506136ab565b5085935050505092915050565b600060e0820190506136fa600083018a613618565b818103602083015261370c81896132ab565b9050818103604083015261372081886132ab565b905061372f60608301876133da565b61373c6080830186613588565b61374960a08301856134ba565b81810360c083015261375b8184613687565b905098975050505050505050565b60006020828403121561377f5761377e613194565b5b600061378d84828501613385565b91505092915050565b600065ffffffffffff82169050919050565b6137b181613796565b82525050565b60006020820190506137cc60008301846137a8565b92915050565b6137db81613524565b81146137e657600080fd5b50565b6000813590506137f8816137d2565b92915050565b60008060008060008060c0878903121561381b5761381a613194565b5b600061382989828a0161334f565b965050602061383a89828a01613385565b955050604061384b89828a01613385565b945050606061385c89828a016137e9565b935050608061386d89828a01613478565b92505060a061387e89828a01613478565b9150509295509295509295565b600080600080600080600060e0888a0312156138aa576138a9613194565b5b60006138b88a828b0161334f565b97505060206138c98a828b0161334f565b96505060406138da8a828b01613385565b95505060606138eb8a828b01613385565b94505060806138fc8a828b016137e9565b93505060a061390d8a828b01613478565b92505060c061391e8a828b01613478565b91505092959891949750929550565b6000806040838503121561394457613943613194565b5b60006139528582860161334f565b92505060206139638582860161334f565b9150509250929050565b613976816135b2565b811461398157600080fd5b50565b6000813590506139938161396d565b92915050565b600080604083850312156139b0576139af613194565b5b60006139be8582860161334f565b92505060206139cf85828601613984565b9150509250929050565b6139e2816135b2565b82525050565b60007bffffffffffffffffffffffffffffffffffffffffffffffffffffffff82169050919050565b613a19816139e8565b82525050565b604082016000820151613a3560008501826139d9565b506020820151613a486020850182613a10565b50505050565b6000604082019050613a636000830184613a1f565b92915050565b7f4e487b7100000000000000000000000000000000000000000000000000000000600052602260045260246000fd5b60006002820490506001821680613ab057607f821691505b602082108103613ac357613ac2613a69565b5b50919050565b7f416363657373436f6e74726f6c3a2063616e206f6e6c792072656e6f756e636560008201527f20726f6c657320666f722073656c660000000000000000000000000000000000602082015250565b6000613b25602f8361325f565b9150613b3082613ac9565b604082019050919050565b60006020820190508181036000830152613b5481613b18565b9050919050565b7f4e487b7100000000000000000000000000000000000000000000000000000000600052601160045260246000fd5b6000613b9582613364565b9150613ba083613364565b9250828201905080821115613bb857613bb7613b5b565b5b92915050565b7f4552433230566f7465733a20667574757265206c6f6f6b757000000000000000600082015250565b6000613bf460198361325f565b9150613bff82613bbe565b602082019050919050565b60006020820190508181036000830152613c2381613be7565b9050919050565b7f4552433230566f7465733a2062726f6b656e20636c6f636b206d6f6465000000600082015250565b6000613c60601d8361325f565b9150613c6b82613c2a565b602082019050919050565b60006020820190508181036000830152613c8f81613c53565b9050919050565b7f4e487b7100000000000000000000000000000000000000000000000000000000600052604160045260246000fd5b7f4e487b7100000000000000000000000000000000000000000000000000000000600052603260045260246000fd5b7f45524332303a2064656372656173656420616c6c6f77616e63652062656c6f7760008201527f207a65726f000000000000000000000000000000000000000000000000000000602082015250565b6000613d5060258361325f565b9150613d5b82613cf4565b604082019050919050565b60006020820190508181036000830152613d7f81613d43565b9050919050565b7f4552433230566f7465733a207369676e61747572652065787069726564000000600082015250565b6000613dbc601d8361325f565b9150613dc782613d86565b602082019050919050565b60006020820190508181036000830152613deb81613daf565b9050919050565b6000608082019050613e0760008301876134ba565b613e146020830186613588565b613e2160408301856133da565b613e2e60608301846133da565b95945050505050565b7f4552433230566f7465733a20696e76616c6964206e6f6e636500000000000000600082015250565b6000613e6d60198361325f565b9150613e7882613e37565b602082019050919050565b60006020820190508181036000830152613e9c81613e60565b9050919050565b7f45524332305065726d69743a206578706972656420646561646c696e65000000600082015250565b6000613ed9601d8361325f565b9150613ee482613ea3565b602082019050919050565b60006020820190508181036000830152613f0881613ecc565b9050919050565b600060c082019050613f2460008301896134ba565b613f316020830188613588565b613f3e6040830187613588565b613f4b60608301866133da565b613f5860808301856133da565b613f6560a08301846133da565b979650505050505050565b7f45524332305065726d69743a20696e76616c6964207369676e61747572650000600082015250565b6000613fa6601e8361325f565b9150613fb182613f70565b602082019050919050565b60006020820190508181036000830152613fd581613f99565b9050919050565b7f45524332303a20617070726f76652066726f6d20746865207a65726f2061646460008201527f7265737300000000000000000000000000000000000000000000000000000000602082015250565b600061403860248361325f565b915061404382613fdc565b604082019050919050565b600060208201905081810360008301526140678161402b565b9050919050565b7f45524332303a20617070726f766520746f20746865207a65726f20616464726560008201527f7373000000000000000000000000000000000000000000000000000000000000602082015250565b60006140ca60228361325f565b91506140d58261406e565b604082019050919050565b600060208201905081810360008301526140f9816140bd565b9050919050565b7f45524332303a20696e73756666696369656e7420616c6c6f77616e6365000000600082015250565b6000614136601d8361325f565b915061414182614100565b602082019050919050565b6000602082019050818103600083015261416581614129565b9050919050565b7f45524332303a207472616e736665722066726f6d20746865207a65726f20616460008201527f6472657373000000000000000000000000000000000000000000000000000000602082015250565b60006141c860258361325f565b91506141d38261416c565b604082019050919050565b600060208201905081810360008301526141f7816141bb565b9050919050565b7f45524332303a207472616e7366657220746f20746865207a65726f206164647260008201527f6573730000000000000000000000000000000000000000000000000000000000602082015250565b600061425a60238361325f565b9150614265826141fe565b604082019050919050565b600060208201905081810360008301526142898161424d565b9050919050565b7f45524332303a207472616e7366657220616d6f756e742065786365656473206260008201527f616c616e63650000000000000000000000000000000000000000000000000000602082015250565b60006142ec60268361325f565b91506142f782614290565b604082019050919050565b6000602082019050818103600083015261431b816142df565b9050919050565b600061432d82613364565b915061433883613364565b92508282039050818111156143505761434f613b5b565b5b92915050565b7f53616665436173743a2076616c756520646f65736e27742066697420696e203360008201527f3220626974730000000000000000000000000000000000000000000000000000602082015250565b60006143b260268361325f565b91506143bd82614356565b604082019050919050565b600060208201905081810360008301526143e1816143a5565b9050919050565b7f53616665436173743a2076616c756520646f65736e27742066697420696e203460008201527f3820626974730000000000000000000000000000000000000000000000000000602082015250565b600061444460268361325f565b915061444f826143e8565b604082019050919050565b6000602082019050818103600083015261447381614437565b9050919050565b600081905092915050565b7f416363657373436f6e74726f6c3a206163636f756e7420000000000000000000600082015250565b60006144bb60178361447a565b91506144c682614485565b601782019050919050565b60006144dc82613254565b6144e6818561447a565b93506144f6818560208601613270565b80840191505092915050565b7f206973206d697373696e6720726f6c6520000000000000000000000000000000600082015250565b600061453860118361447a565b915061454382614502565b601182019050919050565b6000614559826144ae565b915061456582856144d1565b91506145708261452b565b915061457c82846144d1565b91508190509392505050565b600060a08201905061459d60008301886134ba565b6145aa60208301876134ba565b6145b760408301866134ba565b6145c460608301856133da565b6145d16080830184613588565b9695505050505050565b7f4e487b7100000000000000000000000000000000000000000000000000000000600052601260045260246000fd5b600061461582613364565b915061462083613364565b9250826146305761462f6145db565b5b828204905092915050565b7f4552433230566f7465733a20746f74616c20737570706c79207269736b73206f60008201527f766572666c6f77696e6720766f74657300000000000000000000000000000000602082015250565b600061469760308361325f565b91506146a28261463b565b604082019050919050565b600060208201905081810360008301526146c68161468a565b9050919050565b60006040820190506146e260008301856133da565b6146ef60208301846133da565b9392505050565b600060808201905061470b60008301876134ba565b6147186020830186613531565b61472560408301856134ba565b61473260608301846134ba565b95945050505050565b7f4e487b7100000000000000000000000000000000000000000000000000000000600052602160045260246000fd5b7f45434453413a20696e76616c6964207369676e61747572650000000000000000600082015250565b60006147a060188361325f565b91506147ab8261476a565b602082019050919050565b600060208201905081810360008301526147cf81614793565b9050919050565b7f45434453413a20696e76616c6964207369676e6174757265206c656e67746800600082015250565b600061480c601f8361325f565b9150614817826147d6565b602082019050919050565b6000602082019050818103600083015261483b816147ff565b9050919050565b7f45434453413a20696e76616c6964207369676e6174757265202773272076616c60008201527f7565000000000000000000000000000000000000000000000000000000000000602082015250565b600061489e60228361325f565b91506148a982614842565b604082019050919050565b600060208201905081810360008301526148cd81614891565b9050919050565b60006148df82613364565b91506148ea83613364565b92508282026148f881613364565b9150828204841483151761490f5761490e613b5b565b5b5092915050565b600061492182613364565b91506000820361493457614933613b5b565b5b600182039050919050565b7f537472696e67733a20686578206c656e67746820696e73756666696369656e74600082015250565b600061497560208361325f565b91506149808261493f565b602082019050919050565b600060208201905081810360008301526149a481614968565b9050919050565b7f45524332303a206d696e7420746f20746865207a65726f206164647265737300600082015250565b60006149e1601f8361325f565b91506149ec826149ab565b602082019050919050565b60006020820190508181036000830152614a10816149d4565b9050919050565b7f53616665436173743a2076616c756520646f65736e27742066697420696e203260008201527f3234206269747300000000000000000000000000000000000000000000000000602082015250565b6000614a7360278361325f565b9150614a7e82614a17565b604082019050919050565b60006020820190508181036000830152614aa281614a66565b905091905056fea264697066735822122086dc0a72d5f62ba9a79bc1a65132069d3f9aefbd968253eaaab8625f975722f364736f6c63430008130033",
  "linkReferences": {},
  "deployedLinkReferences": {}
}