{
    "_format": "hh-sol-artifact-1",
    "contractName": "TokenizedBallot",
    "sourceName": "contracts/TokenizedBallot.sol",
    "abi": [
        {
            "inputs": [
                {
                    "internalType": "bytes32[]",
                    "name": "proposalNames",
                    "type": "bytes32[]"
                },
                {
                    "internalType": "address",
                    "name": "_tokenContract",
                    "type": "address"
                },
                {
                    "internalType": "uint256",
                    "name": "_targetBlockNumber",
                    "type": "uint256"
                }
            ],
            "stateMutability": "nonpayable",
            "type": "constructor"
        },
        {
            "anonymous": false,
            "inputs": [
                {
                    "indexed": true,
                    "internalType": "uint256",
                    "name": "proposal",
                    "type": "uint256"
                },
                {
                    "indexed": true,
                    "internalType": "uint256",
                    "name": "amount",
                    "type": "uint256"
                }
            ],
            "name": "Vote",
            "type": "event"
        },
        {
            "inputs": [],
            "name": "getProposals",
            "outputs": [
                {
                    "components": [
                        {
                            "internalType": "bytes32",
                            "name": "name",
                            "type": "bytes32"
                        },
                        {
                            "internalType": "uint256",
                            "name": "voteCount",
                            "type": "uint256"
                        }
                    ],
                    "internalType": "struct TokenizedBallot.Proposal[]",
                    "name": "",
                    "type": "tuple[]"
                }
            ],
            "stateMutability": "view",
            "type": "function"
        },
        {
            "inputs": [],
            "name": "getVoteLog",
            "outputs": [
                {
                    "components": [
                        {
                            "internalType": "uint256",
                            "name": "proposal",
                            "type": "uint256"
                        },
                        {
                            "internalType": "address",
                            "name": "voter",
                            "type": "address"
                        },
                        {
                            "internalType": "uint256",
                            "name": "amount",
                            "type": "uint256"
                        },
                        {
                            "internalType": "uint256",
                            "name": "blockNumber",
                            "type": "uint256"
                        }
                    ],
                    "internalType": "struct TokenizedBallot.VoteLog[]",
                    "name": "",
                    "type": "tuple[]"
                }
            ],
            "stateMutability": "view",
            "type": "function"
        },
        {
            "inputs": [
                {
                    "internalType": "uint256",
                    "name": "",
                    "type": "uint256"
                }
            ],
            "name": "proposals",
            "outputs": [
                {
                    "internalType": "bytes32",
                    "name": "name",
                    "type": "bytes32"
                },
                {
                    "internalType": "uint256",
                    "name": "voteCount",
                    "type": "uint256"
                }
            ],
            "stateMutability": "view",
            "type": "function"
        },
        {
            "inputs": [],
            "name": "targetBlockNumber",
            "outputs": [
                {
                    "internalType": "uint256",
                    "name": "",
                    "type": "uint256"
                }
            ],
            "stateMutability": "view",
            "type": "function"
        },
        {
            "inputs": [],
            "name": "tokenContract",
            "outputs": [
                {
                    "internalType": "contract IMyToken",
                    "name": "",
                    "type": "address"
                }
            ],
            "stateMutability": "view",
            "type": "function"
        },
        {
            "inputs": [
                {
                    "internalType": "uint256",
                    "name": "_proposal",
                    "type": "uint256"
                },
                {
                    "internalType": "uint256",
                    "name": "amount",
                    "type": "uint256"
                }
            ],
            "name": "vote",
            "outputs": [],
            "stateMutability": "nonpayable",
            "type": "function"
        },
        {
            "inputs": [
                {
                    "internalType": "uint256",
                    "name": "",
                    "type": "uint256"
                }
            ],
            "name": "votes",
            "outputs": [
                {
                    "internalType": "uint256",
                    "name": "proposal",
                    "type": "uint256"
                },
                {
                    "internalType": "address",
                    "name": "voter",
                    "type": "address"
                },
                {
                    "internalType": "uint256",
                    "name": "amount",
                    "type": "uint256"
                },
                {
                    "internalType": "uint256",
                    "name": "blockNumber",
                    "type": "uint256"
                }
            ],
            "stateMutability": "view",
            "type": "function"
        },
        {
            "inputs": [
                {
                    "internalType": "address",
                    "name": "account",
                    "type": "address"
                }
            ],
            "name": "votingPower",
            "outputs": [
                {
                    "internalType": "uint256",
                    "name": "",
                    "type": "uint256"
                }
            ],
            "stateMutability": "view",
            "type": "function"
        },
        {
            "inputs": [
                {
                    "internalType": "address",
                    "name": "",
                    "type": "address"
                }
            ],
            "name": "votingPowerSpent",
            "outputs": [
                {
                    "internalType": "uint256",
                    "name": "",
                    "type": "uint256"
                }
            ],
            "stateMutability": "view",
            "type": "function"
        },
        {
            "inputs": [],
            "name": "winnerName",
            "outputs": [
                {
                    "internalType": "bytes32",
                    "name": "winnerName_",
                    "type": "bytes32"
                }
            ],
            "stateMutability": "view",
            "type": "function"
        },
        {
            "inputs": [],
            "name": "winningProposal",
            "outputs": [
                {
                    "internalType": "uint256",
                    "name": "winningProposal_",
                    "type": "uint256"
                }
            ],
            "stateMutability": "view",
            "type": "function"
        }
    ],
    "bytecode": "0x60806040523480156200001157600080fd5b50604051620013cd380380620013cd833981810160405281019062000037919062000384565b81600260006101000a81548173ffffffffffffffffffffffffffffffffffffffff021916908373ffffffffffffffffffffffffffffffffffffffff1602179055508060038190555060005b8351811015620001165760006040518060400160405280868481518110620000af57620000ae620003ff565b5b60200260200101518152602001600081525090806001815401808255809150506001900390600052602060002090600202016000909190919091506000820151816000015560208201518160010155505080806200010d906200045d565b91505062000082565b50505050620004aa565b6000604051905090565b600080fd5b600080fd5b600080fd5b6000601f19601f8301169050919050565b7f4e487b7100000000000000000000000000000000000000000000000000000000600052604160045260246000fd5b620001848262000139565b810181811067ffffffffffffffff82111715620001a657620001a56200014a565b5b80604052505050565b6000620001bb62000120565b9050620001c9828262000179565b919050565b600067ffffffffffffffff821115620001ec57620001eb6200014a565b5b602082029050602081019050919050565b600080fd5b6000819050919050565b620002178162000202565b81146200022357600080fd5b50565b60008151905062000237816200020c565b92915050565b6000620002546200024e84620001ce565b620001af565b905080838252602082019050602084028301858111156200027a5762000279620001fd565b5b835b81811015620002a7578062000292888262000226565b8452602084019350506020810190506200027c565b5050509392505050565b600082601f830112620002c957620002c862000134565b5b8151620002db8482602086016200023d565b91505092915050565b600073ffffffffffffffffffffffffffffffffffffffff82169050919050565b60006200031182620002e4565b9050919050565b620003238162000304565b81146200032f57600080fd5b50565b600081519050620003438162000318565b92915050565b6000819050919050565b6200035e8162000349565b81146200036a57600080fd5b50565b6000815190506200037e8162000353565b92915050565b600080600060608486031215620003a0576200039f6200012a565b5b600084015167ffffffffffffffff811115620003c157620003c06200012f565b5b620003cf86828701620002b1565b9350506020620003e28682870162000332565b9250506040620003f5868287016200036d565b9150509250925092565b7f4e487b7100000000000000000000000000000000000000000000000000000000600052603260045260246000fd5b7f4e487b7100000000000000000000000000000000000000000000000000000000600052601160045260246000fd5b60006200046a8262000349565b91507fffffffffffffffffffffffffffffffffffffffffffffffffffffffffffffffff82036200049f576200049e6200042e565b5b600182019050919050565b610f1380620004ba6000396000f3fe608060405234801561001057600080fd5b50600436106100a95760003560e01c806362564c481161007157806362564c481461016c578063819c53801461018a578063a7200351146101a8578063b384abef146101d8578063c07473f6146101f4578063e2ba53f014610224576100a9565b8063013cf08b146100ae5780632a8cd29e146100df57806355a373d6146100fd5780635df813301461011b578063609ff1bd1461014e575b600080fd5b6100c860048036038101906100c39190610821565b610242565b6040516100d6929190610876565b60405180910390f35b6100e7610276565b6040516100f4919061089f565b60405180910390f35b61010561027c565b6040516101129190610939565b60405180910390f35b61013560048036038101906101309190610821565b6102a2565b6040516101459493929190610975565b60405180910390f35b610156610302565b604051610163919061089f565b60405180910390f35b61017461038a565b6040516101819190610ab6565b60405180910390f35b6101926103fd565b60405161019f9190610beb565b60405180910390f35b6101c260048036038101906101bd9190610c39565b6104d0565b6040516101cf919061089f565b60405180910390f35b6101f260048036038101906101ed9190610c66565b6104e8565b005b61020e60048036038101906102099190610c39565b6106c0565b60405161021b919061089f565b60405180910390f35b61022c6107b3565b6040516102399190610ca6565b60405180910390f35b6000818154811061025257600080fd5b90600052602060002090600202016000915090508060000154908060010154905082565b60035481565b600260009054906101000a900473ffffffffffffffffffffffffffffffffffffffff1681565b600181815481106102b257600080fd5b90600052602060002090600402016000915090508060000154908060010160009054906101000a900473ffffffffffffffffffffffffffffffffffffffff16908060020154908060030154905084565b6000806000905060005b60008054905081101561038557816000828154811061032e5761032d610cc1565b5b9060005260206000209060020201600101541115610372576000818154811061035a57610359610cc1565b5b90600052602060002090600202016001015491508092505b808061037d90610d1f565b91505061030c565b505090565b60606000805480602002602001604051908101604052809291908181526020016000905b828210156103f4578382906000526020600020906002020160405180604001604052908160008201548152602001600182015481525050815260200190600101906103ae565b50505050905090565b60606001805480602002602001604051908101604052809291908181526020016000905b828210156104c75783829060005260206000209060040201604051806080016040529081600082015481526020016001820160009054906101000a900473ffffffffffffffffffffffffffffffffffffffff1673ffffffffffffffffffffffffffffffffffffffff1673ffffffffffffffffffffffffffffffffffffffff1681526020016002820154815260200160038201548152505081526020019060010190610421565b50505050905090565b60046020528060005260406000206000915090505481565b806104f2336106c0565b1015610533576040517f08c379a000000000000000000000000000000000000000000000000000000000815260040161052a90610dea565b60405180910390fd5b80600460003373ffffffffffffffffffffffffffffffffffffffff1673ffffffffffffffffffffffffffffffffffffffff16815260200190815260200160002060008282546105829190610e0a565b92505081905550806000838154811061059e5761059d610cc1565b5b906000526020600020906002020160010160008282546105be9190610e0a565b92505081905550600160405180608001604052808481526020013373ffffffffffffffffffffffffffffffffffffffff1681526020018381526020014381525090806001815401808255809150506001900390600052602060002090600402016000909190919091506000820151816000015560208201518160010160006101000a81548173ffffffffffffffffffffffffffffffffffffffff021916908373ffffffffffffffffffffffffffffffffffffffff1602179055506040820151816002015560608201518160030155505080827f33952ef907843fd2ddd118a92dd935debf65b72965a557a364ea08deffca032f60405160405180910390a35050565b6000600460008373ffffffffffffffffffffffffffffffffffffffff1673ffffffffffffffffffffffffffffffffffffffff16815260200190815260200160002054600260009054906101000a900473ffffffffffffffffffffffffffffffffffffffff1673ffffffffffffffffffffffffffffffffffffffff16633a46b1a8846003546040518363ffffffff1660e01b8152600401610761929190610e3e565b602060405180830381865afa15801561077e573d6000803e3d6000fd5b505050506040513d601f19601f820116820180604052508101906107a29190610e7c565b6107ac9190610ea9565b9050919050565b6000806107be610302565b815481106107cf576107ce610cc1565b5b906000526020600020906002020160000154905090565b600080fd5b6000819050919050565b6107fe816107eb565b811461080957600080fd5b50565b60008135905061081b816107f5565b92915050565b600060208284031215610837576108366107e6565b5b60006108458482850161080c565b91505092915050565b6000819050919050565b6108618161084e565b82525050565b610870816107eb565b82525050565b600060408201905061088b6000830185610858565b6108986020830184610867565b9392505050565b60006020820190506108b46000830184610867565b92915050565b600073ffffffffffffffffffffffffffffffffffffffff82169050919050565b6000819050919050565b60006108ff6108fa6108f5846108ba565b6108da565b6108ba565b9050919050565b6000610911826108e4565b9050919050565b600061092382610906565b9050919050565b61093381610918565b82525050565b600060208201905061094e600083018461092a565b92915050565b600061095f826108ba565b9050919050565b61096f81610954565b82525050565b600060808201905061098a6000830187610867565b6109976020830186610966565b6109a46040830185610867565b6109b16060830184610867565b95945050505050565b600081519050919050565b600082825260208201905092915050565b6000819050602082019050919050565b6109ef8161084e565b82525050565b6109fe816107eb565b82525050565b604082016000820151610a1a60008501826109e6565b506020820151610a2d60208501826109f5565b50505050565b6000610a3f8383610a04565b60408301905092915050565b6000602082019050919050565b6000610a63826109ba565b610a6d81856109c5565b9350610a78836109d6565b8060005b83811015610aa9578151610a908882610a33565b9750610a9b83610a4b565b925050600181019050610a7c565b5085935050505092915050565b60006020820190508181036000830152610ad08184610a58565b905092915050565b600081519050919050565b600082825260208201905092915050565b6000819050602082019050919050565b610b0d81610954565b82525050565b608082016000820151610b2960008501826109f5565b506020820151610b3c6020850182610b04565b506040820151610b4f60408501826109f5565b506060820151610b6260608501826109f5565b50505050565b6000610b748383610b13565b60808301905092915050565b6000602082019050919050565b6000610b9882610ad8565b610ba28185610ae3565b9350610bad83610af4565b8060005b83811015610bde578151610bc58882610b68565b9750610bd083610b80565b925050600181019050610bb1565b5085935050505092915050565b60006020820190508181036000830152610c058184610b8d565b905092915050565b610c1681610954565b8114610c2157600080fd5b50565b600081359050610c3381610c0d565b92915050565b600060208284031215610c4f57610c4e6107e6565b5b6000610c5d84828501610c24565b91505092915050565b60008060408385031215610c7d57610c7c6107e6565b5b6000610c8b8582860161080c565b9250506020610c9c8582860161080c565b9150509250929050565b6000602082019050610cbb6000830184610858565b92915050565b7f4e487b7100000000000000000000000000000000000000000000000000000000600052603260045260246000fd5b7f4e487b7100000000000000000000000000000000000000000000000000000000600052601160045260246000fd5b6000610d2a826107eb565b91507fffffffffffffffffffffffffffffffffffffffffffffffffffffffffffffffff8203610d5c57610d5b610cf0565b5b600182019050919050565b600082825260208201905092915050565b7f546f6b656e697a656442616c6c6f743a20747279696e6720746f20766f74652060008201527f6d6f7265207468616e20616c6c6f776564000000000000000000000000000000602082015250565b6000610dd4603183610d67565b9150610ddf82610d78565b604082019050919050565b60006020820190508181036000830152610e0381610dc7565b9050919050565b6000610e15826107eb565b9150610e20836107eb565b9250828201905080821115610e3857610e37610cf0565b5b92915050565b6000604082019050610e536000830185610966565b610e606020830184610867565b9392505050565b600081519050610e76816107f5565b92915050565b600060208284031215610e9257610e916107e6565b5b6000610ea084828501610e67565b91505092915050565b6000610eb4826107eb565b9150610ebf836107eb565b9250828203905081811115610ed757610ed6610cf0565b5b9291505056fea2646970667358221220a77548e68b40b030a4aa21f526dd330e470bb68df6e255d94aa5ce29f5ab1f8664736f6c63430008130033",
    "linkReferences": {},
    "deployedLinkReferences": {}
}