{
  "_format": "hh-sol-artifact-1",
  "contractName": "TokenizedBallot",
  "sourceName": "contracts/TokenizedBallot.sol",
  "abi": [
    {
      "inputs": [
        {
          "internalType": "bytes32[]",
          "name": "proposalNames",
          "type": "bytes32[]"
        },
        {
          "internalType": "address",
          "name": "_tokenContract",
          "type": "address"
        },
        {
          "internalType": "uint256",
          "name": "_targetBlockNumber",
          "type": "uint256"
        }
      ],
      "stateMutability": "nonpayable",
      "type": "constructor"
    },
    {
      "anonymous": false,
      "inputs": [
        {
          "indexed": true,
          "internalType": "uint256",
          "name": "proposal",
          "type": "uint256"
        },
        {
          "indexed": true,
          "internalType": "uint256",
          "name": "amount",
          "type": "uint256"
        }
      ],
      "name": "Vote",
      "type": "event"
    },
    {
      "inputs": [
        {
          "internalType": "uint256",
          "name": "",
          "type": "uint256"
        }
      ],
      "name": "proposals",
      "outputs": [
        {
          "internalType": "bytes32",
          "name": "name",
          "type": "bytes32"
        },
        {
          "internalType": "uint256",
          "name": "voteCount",
          "type": "uint256"
        }
      ],
      "stateMutability": "view",
      "type": "function"
    },
    {
      "inputs": [],
      "name": "targetBlockNumber",
      "outputs": [
        {
          "internalType": "uint256",
          "name": "",
          "type": "uint256"
        }
      ],
      "stateMutability": "view",
      "type": "function"
    },
    {
      "inputs": [],
      "name": "tokenContract",
      "outputs": [
        {
          "internalType": "contract IMyToken",
          "name": "",
          "type": "address"
        }
      ],
      "stateMutability": "view",
      "type": "function"
    },
    {
      "inputs": [
        {
          "internalType": "uint256",
          "name": "_proposal",
          "type": "uint256"
        },
        {
          "internalType": "uint256",
          "name": "amount",
          "type": "uint256"
        }
      ],
      "name": "vote",
      "outputs": [],
      "stateMutability": "nonpayable",
      "type": "function"
    },
    {
      "inputs": [
        {
          "internalType": "uint256",
          "name": "",
          "type": "uint256"
        }
      ],
      "name": "votes",
      "outputs": [
        {
          "internalType": "uint256",
          "name": "proposal",
          "type": "uint256"
        },
        {
          "internalType": "address",
          "name": "voter",
          "type": "address"
        },
        {
          "internalType": "uint256",
          "name": "amount",
          "type": "uint256"
        },
        {
          "internalType": "uint256",
          "name": "blockNumber",
          "type": "uint256"
        }
      ],
      "stateMutability": "view",
      "type": "function"
    },
    {
      "inputs": [
        {
          "internalType": "address",
          "name": "account",
          "type": "address"
        }
      ],
      "name": "votingPower",
      "outputs": [
        {
          "internalType": "uint256",
          "name": "",
          "type": "uint256"
        }
      ],
      "stateMutability": "view",
      "type": "function"
    },
    {
      "inputs": [
        {
          "internalType": "address",
          "name": "",
          "type": "address"
        }
      ],
      "name": "votingPowerSpent",
      "outputs": [
        {
          "internalType": "uint256",
          "name": "",
          "type": "uint256"
        }
      ],
      "stateMutability": "view",
      "type": "function"
    },
    {
      "inputs": [],
      "name": "winnerName",
      "outputs": [
        {
          "internalType": "bytes32",
          "name": "winnerName_",
          "type": "bytes32"
        }
      ],
      "stateMutability": "view",
      "type": "function"
    },
    {
      "inputs": [],
      "name": "winningProposal",
      "outputs": [
        {
          "internalType": "uint256",
          "name": "winningProposal_",
          "type": "uint256"
        }
      ],
      "stateMutability": "view",
      "type": "function"
    }
  ],
  "bytecode": "0x60806040523480156200001157600080fd5b5060405162000fe238038062000fe2833981810160405281019062000037919062000384565b81600260006101000a81548173ffffffffffffffffffffffffffffffffffffffff021916908373ffffffffffffffffffffffffffffffffffffffff1602179055508060038190555060005b8351811015620001165760006040518060400160405280868481518110620000af57620000ae620003ff565b5b60200260200101518152602001600081525090806001815401808255809150506001900390600052602060002090600202016000909190919091506000820151816000015560208201518160010155505080806200010d906200045d565b91505062000082565b50505050620004aa565b6000604051905090565b600080fd5b600080fd5b600080fd5b6000601f19601f8301169050919050565b7f4e487b7100000000000000000000000000000000000000000000000000000000600052604160045260246000fd5b620001848262000139565b810181811067ffffffffffffffff82111715620001a657620001a56200014a565b5b80604052505050565b6000620001bb62000120565b9050620001c9828262000179565b919050565b600067ffffffffffffffff821115620001ec57620001eb6200014a565b5b602082029050602081019050919050565b600080fd5b6000819050919050565b620002178162000202565b81146200022357600080fd5b50565b60008151905062000237816200020c565b92915050565b6000620002546200024e84620001ce565b620001af565b905080838252602082019050602084028301858111156200027a5762000279620001fd565b5b835b81811015620002a7578062000292888262000226565b8452602084019350506020810190506200027c565b5050509392505050565b600082601f830112620002c957620002c862000134565b5b8151620002db8482602086016200023d565b91505092915050565b600073ffffffffffffffffffffffffffffffffffffffff82169050919050565b60006200031182620002e4565b9050919050565b620003238162000304565b81146200032f57600080fd5b50565b600081519050620003438162000318565b92915050565b6000819050919050565b6200035e8162000349565b81146200036a57600080fd5b50565b6000815190506200037e8162000353565b92915050565b600080600060608486031215620003a0576200039f6200012a565b5b600084015167ffffffffffffffff811115620003c157620003c06200012f565b5b620003cf86828701620002b1565b9350506020620003e28682870162000332565b9250506040620003f5868287016200036d565b9150509250925092565b7f4e487b7100000000000000000000000000000000000000000000000000000000600052603260045260246000fd5b7f4e487b7100000000000000000000000000000000000000000000000000000000600052601160045260246000fd5b60006200046a8262000349565b91507fffffffffffffffffffffffffffffffffffffffffffffffffffffffffffffffff82036200049f576200049e6200042e565b5b600182019050919050565b610b2880620004ba6000396000f3fe608060405234801561001057600080fd5b50600436106100935760003560e01c8063609ff1bd11610066578063609ff1bd14610138578063a720035114610156578063b384abef14610186578063c07473f6146101a2578063e2ba53f0146101d257610093565b8063013cf08b146100985780632a8cd29e146100c957806355a373d6146100e75780635df8133014610105575b600080fd5b6100b260048036038101906100ad9190610689565b6101f0565b6040516100c09291906106de565b60405180910390f35b6100d1610224565b6040516100de9190610707565b60405180910390f35b6100ef61022a565b6040516100fc91906107a1565b60405180910390f35b61011f600480360381019061011a9190610689565b610250565b60405161012f94939291906107dd565b60405180910390f35b6101406102b0565b60405161014d9190610707565b60405180910390f35b610170600480360381019061016b919061084e565b610338565b60405161017d9190610707565b60405180910390f35b6101a0600480360381019061019b919061087b565b610350565b005b6101bc60048036038101906101b7919061084e565b610528565b6040516101c99190610707565b60405180910390f35b6101da61061b565b6040516101e791906108bb565b60405180910390f35b6000818154811061020057600080fd5b90600052602060002090600202016000915090508060000154908060010154905082565b60035481565b600260009054906101000a900473ffffffffffffffffffffffffffffffffffffffff1681565b6001818154811061026057600080fd5b90600052602060002090600402016000915090508060000154908060010160009054906101000a900473ffffffffffffffffffffffffffffffffffffffff16908060020154908060030154905084565b6000806000905060005b6000805490508110156103335781600082815481106102dc576102db6108d6565b5b90600052602060002090600202016001015411156103205760008181548110610308576103076108d6565b5b90600052602060002090600202016001015491508092505b808061032b90610934565b9150506102ba565b505090565b60046020528060005260406000206000915090505481565b8061035a33610528565b101561039b576040517f08c379a0000000000000000000000000000000000000000000000000000000008152600401610392906109ff565b60405180910390fd5b80600460003373ffffffffffffffffffffffffffffffffffffffff1673ffffffffffffffffffffffffffffffffffffffff16815260200190815260200160002060008282546103ea9190610a1f565b925050819055508060008381548110610406576104056108d6565b5b906000526020600020906002020160010160008282546104269190610a1f565b92505081905550600160405180608001604052808481526020013373ffffffffffffffffffffffffffffffffffffffff1681526020018381526020014381525090806001815401808255809150506001900390600052602060002090600402016000909190919091506000820151816000015560208201518160010160006101000a81548173ffffffffffffffffffffffffffffffffffffffff021916908373ffffffffffffffffffffffffffffffffffffffff1602179055506040820151816002015560608201518160030155505080827f33952ef907843fd2ddd118a92dd935debf65b72965a557a364ea08deffca032f60405160405180910390a35050565b6000600460008373ffffffffffffffffffffffffffffffffffffffff1673ffffffffffffffffffffffffffffffffffffffff16815260200190815260200160002054600260009054906101000a900473ffffffffffffffffffffffffffffffffffffffff1673ffffffffffffffffffffffffffffffffffffffff16633a46b1a8846003546040518363ffffffff1660e01b81526004016105c9929190610a53565b602060405180830381865afa1580156105e6573d6000803e3d6000fd5b505050506040513d601f19601f8201168201806040525081019061060a9190610a91565b6106149190610abe565b9050919050565b6000806106266102b0565b81548110610637576106366108d6565b5b906000526020600020906002020160000154905090565b600080fd5b6000819050919050565b61066681610653565b811461067157600080fd5b50565b6000813590506106838161065d565b92915050565b60006020828403121561069f5761069e61064e565b5b60006106ad84828501610674565b91505092915050565b6000819050919050565b6106c9816106b6565b82525050565b6106d881610653565b82525050565b60006040820190506106f360008301856106c0565b61070060208301846106cf565b9392505050565b600060208201905061071c60008301846106cf565b92915050565b600073ffffffffffffffffffffffffffffffffffffffff82169050919050565b6000819050919050565b600061076761076261075d84610722565b610742565b610722565b9050919050565b60006107798261074c565b9050919050565b600061078b8261076e565b9050919050565b61079b81610780565b82525050565b60006020820190506107b66000830184610792565b92915050565b60006107c782610722565b9050919050565b6107d7816107bc565b82525050565b60006080820190506107f260008301876106cf565b6107ff60208301866107ce565b61080c60408301856106cf565b61081960608301846106cf565b95945050505050565b61082b816107bc565b811461083657600080fd5b50565b60008135905061084881610822565b92915050565b6000602082840312156108645761086361064e565b5b600061087284828501610839565b91505092915050565b600080604083850312156108925761089161064e565b5b60006108a085828601610674565b92505060206108b185828601610674565b9150509250929050565b60006020820190506108d060008301846106c0565b92915050565b7f4e487b7100000000000000000000000000000000000000000000000000000000600052603260045260246000fd5b7f4e487b7100000000000000000000000000000000000000000000000000000000600052601160045260246000fd5b600061093f82610653565b91507fffffffffffffffffffffffffffffffffffffffffffffffffffffffffffffffff820361097157610970610905565b5b600182019050919050565b600082825260208201905092915050565b7f546f6b656e697a656442616c6c6f743a20747279696e6720746f20766f74652060008201527f6d6f7265207468616e20616c6c6f776564000000000000000000000000000000602082015250565b60006109e960318361097c565b91506109f48261098d565b604082019050919050565b60006020820190508181036000830152610a18816109dc565b9050919050565b6000610a2a82610653565b9150610a3583610653565b9250828201905080821115610a4d57610a4c610905565b5b92915050565b6000604082019050610a6860008301856107ce565b610a7560208301846106cf565b9392505050565b600081519050610a8b8161065d565b92915050565b600060208284031215610aa757610aa661064e565b5b6000610ab584828501610a7c565b91505092915050565b6000610ac982610653565b9150610ad483610653565b9250828203905081811115610aec57610aeb610905565b5b9291505056fea2646970667358221220a578c0c6a267cd5449dfa1934315c1c071c697966cd9ecd7875f2b9e446c92ba64736f6c63430008130033",
  "linkReferences": {},
  "deployedLinkReferences": {}
}